:100000000C9436000C9453000C9453000C94530041
:100010000C9453000C9453000C9453000C94530014
:100020000C9453000C9453000C9493000C945300C4
:100030000C9453000C9453000C9453000C945300F4
:100040000C9453000C9453000C9453000C945300E4
:100050000C9453000C9453000C9453000C945300D4
:100060000C9453000C9453000C94530011241FBEA5
:10007000CFEFD4E0DEBFCDBF11E0A0E0B1E0E0EE15
:10008000F6E002C005900D92AC30B107D9F721E03F
:10009000ACE0B1E001C01D92A331B207E1F70E94CC
:1000A0007E010C946E030C94000098E071988823F4
:1000B00014F4709A01C07098719A880F9150B1F73A
:1000C000089580E197E200000197E9F708955E98AE
:1000D0000E9455005F9A0E9461005F98089581E038
:1000E0000E94670088E30E9467008CE00E9467001E
:1000F00086E00E94670008955E9A0E9455005F9A0C
:100100000E9461005F980895CF93DF93EC0188818E
:10011000882331F021960E947C0089918111FBCFC8
:10012000DF91CF9108951F920F920FB60F92112475
:100130008F939F93EF93FF9310920D0110920C01F8
:10014000E4E8F0E08081918190930D0180930C01AF
:1001500011821082FF91EF919F918F910F900FBEAE
:100160000F901F90189581E88093810080E286BBF4
:1001700080936F000895CF92DF92EF92FF920F93DA
:100180001F93CF93C82FFB016B01D694C794D694CD
:10019000C794D694C794D694C7949601A7E4B3E0C5
:1001A0000E945F03AC015695479556954795569525
:1001B000479520E137E2429FC001439F900D529F37
:1001C000900D1124AF01481B590B7A01F694E79466
:1001D000F694E794F694E7949701A5ECB0E20E94B8
:1001E0005F03FC01F295E295EF70EF27FF70EF27B8
:1001F00028EE33E0E29FC001E39F900DF29F900D47
:100200001124FA01E81BF90B8F0116950795169535
:1002100007959801ABE7B4E10E945F03AC015695E6
:10022000479524E6249FC001259F900D1124AF011E
:10023000481B590B9601A7E4B3E00E945F03969513
:1002400087959695879596958795805D8093100103
:100250009701A5ECB0E20E945F03929582958F70A2
:1002600089279F708927805D80930F019801ABE7F4
:10027000B4E10E945F0396958795805D809311019C
:100280009A01ADECBCEC0E945F039695879596951C
:1002900087959695879520E3280F20930E019C0162
:1002A000220F331F880F991F880F991F880F991FDE
:1002B000820F931F481B590B405D409312018C2FF6
:1002C0000E946700809110010E947C0080910F01C4
:1002D0000E947C00809111010E947C0080910E019F
:1002E0000E947C00809112010E947C00CF911F919E
:1002F0000F91FF90EF90DF90CF9008958FEF8DB921
:100300009EEF94B987B98AB91EB815B818B81BB84A
:100310000E946F000E94B30080E80E94670080E0A6
:1003200091E00E948400789460910C0170910D011D
:1003300080EC0E94BB0060910C0170910D0180E087
:1003400090E00E94640220E030E04AE752E40E941C
:10035000F20228E23BE64EE65EE40E94C3019B0106
:10036000AC0160E070E080E89FE30E94C3010E945E
:1003700035028AEC0E94BB0088E40E947C008AE778
:100380000E947C00D1CF0E94D7010C94B8020E9439
:10039000B10258F00E94AA0240F029F45F3F29F010
:1003A0000C94A10251110C94EC020C94A7020E942F
:1003B000C90268F39923B1F3552391F3951B550BAB
:1003C000BB27AA2762177307840738F09F5F5F4F28
:1003D000220F331F441FAA1FA9F335D00E2E3AF067
:1003E000E0E832D091505040E695001CCAF72BD07F
:1003F000FE2F29D0660F771F881FBB1F26173707D0
:100400004807AB07B0E809F0BB0B802DBF01FF2701
:1004100093585F4F3AF09E3F510578F00C94A1023B
:100420000C94EC025F3FE4F3983ED4F38695779505
:100430006795B795F7959F5FC9F7880F911D9695BA
:10044000879597F90895E1E0660F771F881FBB1F16
:10045000621773078407BA0720F0621B730B840BC3
:10046000BA0BEE1F88F7E09508950E94D10288F03C
:100470009F5798F0B92F9927B751B0F0E1F0660F68
:10048000771F881F991F1AF0BA95C9F714C0B130A9
:1004900091F00E94EB02B1E008950C94EB02672FFB
:1004A000782F8827B85F39F0B93FCCF386957795D8
:1004B0006795B395D9F73EF49095809570956195C1
:1004C0007F4F8F4F9F4F0895E89409C097FB3EF4EC
:1004D00090958095709561957F4F8F4F9F4F992391
:1004E000A9F0F92F96E9BB279395F695879577950F
:1004F0006795B795F111F8CFFAF4BB0F11F460FFCF
:100500001BC06F5F7F4F8F4F9F4F16C0882311F026
:1005100096E911C0772321F09EE8872F762F05C03A
:10052000662371F096E8862F70E060E02AF09A95D5
:10053000660F771F881FDAF7880F9695879597F9CA
:10054000089597F99F6780E870E060E008959FEF55
:1005500080EC089500240A9416161706180609065A
:10056000089500240A941216130614060506089529
:10057000092E0394000C11F4882352F0BB0F40F4B1
:10058000BF2B11F460FF04C06F5F7F4F8F4F9F4FF1
:10059000089557FD9058440F551F59F05F3F71F073
:1005A0004795880F97FB991F61F09F3F79F08795DA
:1005B0000895121613061406551FF2CF4695F1DF63
:1005C00008C0161617061806991FF1CF86957105F3
:1005D000610508940895E894BB2766277727CB0127
:1005E00097F908950E9405030C94B8020E94AA028C
:1005F00038F00E94B10220F0952311F00C94A10272
:100600000C94A70211240C94EC020E94C90270F30E
:10061000959FC1F3950F50E0551F629FF001729FA7
:10062000BB27F00DB11D639FAA27F00DB11DAA1FB6
:10063000649F6627B00DA11D661F829F2227B00D03
:10064000A11D621F739FB00DA11D621F839FA00D8E
:10065000611D221F749F3327A00D611D231F849FDE
:10066000600D211D822F762F6A2F11249F57504035
:100670009AF0F1F088234AF0EE0FFF1FBB1F661FB0
:10068000771F881F91505040A9F79E3F510580F079
:100690000C94A1020C94EC025F3FE4F3983ED4F377
:1006A000869577956795B795F795E7959F5FC1F71D
:1006B000FE2B880F911D9695879597F90895A29F17
:1006C000B001B39FC001A39F700D811D1124911D26
:1006D000B29F700D811D1124911D0895F894FFCFD4
:0C06E00054696D6D6572207465737400C0
:00000001FF
